{
	"contracts/lastwill.sol": {
		"change": {
			"abi": [
				{
					"inputs": [],
					"stateMutability": "payable",
					"type": "constructor"
				},
				{
					"inputs": [
						{
							"internalType": "uint256",
							"name": "",
							"type": "uint256"
						}
					],
					"name": "Person",
					"outputs": [
						{
							"internalType": "address payable",
							"name": "beneficiaryAccounts",
							"type": "address"
						},
						{
							"internalType": "uint256",
							"name": "beneficiaryamount",
							"type": "uint256"
						}
					],
					"stateMutability": "view",
					"type": "function"
				},
				{
					"inputs": [],
					"name": "balance",
					"outputs": [
						{
							"internalType": "uint256",
							"name": "",
							"type": "uint256"
						}
					],
					"stateMutability": "view",
					"type": "function"
				},
				{
					"inputs": [
						{
							"internalType": "address payable",
							"name": "beneficiaryAccounts",
							"type": "address"
						},
						{
							"internalType": "uint256",
							"name": "beneficiaryamount",
							"type": "uint256"
						}
					],
					"name": "benificerdetails",
					"outputs": [],
					"stateMutability": "nonpayable",
					"type": "function"
				},
				{
					"inputs": [],
					"name": "deceased",
					"outputs": [],
					"stateMutability": "nonpayable",
					"type": "function"
				},
				{
					"inputs": [
						{
							"internalType": "uint256",
							"name": "valueEther",
							"type": "uint256"
						}
					],
					"name": "etherToWei",
					"outputs": [
						{
							"internalType": "uint256",
							"name": "",
							"type": "uint256"
						}
					],
					"stateMutability": "pure",
					"type": "function"
				}
			],
			"devdoc": {
				"kind": "dev",
				"methods": {},
				"version": 1
			},
			"evm": {
				"assembly": "    /* \"contracts/lastwill.sol\":62:2610  contract change{... */\n  mstore(0x40, 0x80)\n    /* \"contracts/lastwill.sol\":256:277  address(this).balance */\n  selfbalance\n    /* \"contracts/lastwill.sol\":234:277  uint public balance = address(this).balance */\n  0x00\n  sstore\n    /* \"contracts/lastwill.sol\":511:516  false */\n  0x00\n    /* \"contracts/lastwill.sol\":487:516  bool checkBalanceFlag = false */\n  0x03\n  exp(0x0100, 0x01)\n  dup2\n  sload\n  dup2\n  0xff\n  mul\n  not\n  and\n  swap1\n  dup4\n  iszero\n  iszero\n  mul\n  or\n  swap1\n  sstore\n  pop\n    /* \"contracts/lastwill.sol\":129:139  msg.sender */\n  caller\n    /* \"contracts/lastwill.sol\":121:126  owner */\n  0x01\n  0x00\n    /* \"contracts/lastwill.sol\":121:139  owner = msg.sender */\n  0x0100\n  exp\n  dup2\n  sload\n  dup2\n  0xffffffffffffffffffffffffffffffffffffffff\n  mul\n  not\n  and\n  swap1\n  dup4\n  0xffffffffffffffffffffffffffffffffffffffff\n  and\n  mul\n  or\n  swap1\n  sstore\n  pop\n    /* \"contracts/lastwill.sol\":158:167  msg.value */\n  callvalue\n    /* \"contracts/lastwill.sol\":150:155  funds */\n  0x02\n    /* \"contracts/lastwill.sol\":150:167  funds = msg.value */\n  dup2\n  swap1\n  sstore\n  pop\n    /* \"contracts/lastwill.sol\":191:196  false */\n  0x00\n    /* \"contracts/lastwill.sol\":178:188  isDeceased */\n  0x03\n  0x00\n    /* \"contracts/lastwill.sol\":178:196  isDeceased = false */\n  0x0100\n  exp\n  dup2\n  sload\n  dup2\n  0xff\n  mul\n  not\n  and\n  swap1\n  dup4\n  iszero\n  iszero\n  mul\n  or\n  swap1\n  sstore\n  pop\n    /* \"contracts/lastwill.sol\":62:2610  contract change{... */\n  dataSize(sub_0)\n  dup1\n  dataOffset(sub_0)\n  0x00\n  codecopy\n  0x00\n  return\nstop\n\nsub_0: assembly {\n        /* \"contracts/lastwill.sol\":62:2610  contract change{... */\n      mstore(0x40, 0x80)\n      callvalue\n      dup1\n      iszero\n      tag_1\n      jumpi\n      0x00\n      dup1\n      revert\n    tag_1:\n      pop\n      jumpi(tag_2, lt(calldatasize, 0x04))\n      shr(0xe0, calldataload(0x00))\n      dup1\n      0x71b309c4\n      eq\n      tag_3\n      jumpi\n      dup1\n      0x72faf2d9\n      eq\n      tag_4\n      jumpi\n      dup1\n      0xb69ef8a8\n      eq\n      tag_5\n      jumpi\n      dup1\n      0xc2e0287c\n      eq\n      tag_6\n      jumpi\n      dup1\n      0xd8916bb9\n      eq\n      tag_7\n      jumpi\n    tag_2:\n      0x00\n      dup1\n      revert\n        /* \"contracts/lastwill.sol\":677:704  Beneficiary[] public Person */\n    tag_3:\n      tag_8\n      0x04\n      dup1\n      calldatasize\n      sub\n      dup2\n      add\n      swap1\n      tag_9\n      swap2\n      swap1\n      tag_10\n      jump\t// in\n    tag_9:\n      tag_11\n      jump\t// in\n    tag_8:\n      mload(0x40)\n      tag_12\n      swap3\n      swap2\n      swap1\n      tag_13\n      jump\t// in\n    tag_12:\n      mload(0x40)\n      dup1\n      swap2\n      sub\n      swap1\n      return\n        /* \"contracts/lastwill.sol\":2355:2453  function deceased() public onlyOwner {... */\n    tag_4:\n      tag_14\n      tag_15\n      jump\t// in\n    tag_14:\n      stop\n        /* \"contracts/lastwill.sol\":234:277  uint public balance = address(this).balance */\n    tag_5:\n      tag_16\n      tag_17\n      jump\t// in\n    tag_16:\n      mload(0x40)\n      tag_18\n      swap2\n      swap1\n      tag_19\n      jump\t// in\n    tag_18:\n      mload(0x40)\n      dup1\n      swap2\n      sub\n      swap1\n      return\n        /* \"contracts/lastwill.sol\":1237:2031  function benificerdetails(address payable beneficiaryAccounts, uint beneficiaryamount)  public {... */\n    tag_6:\n      tag_20\n      0x04\n      dup1\n      calldatasize\n      sub\n      dup2\n      add\n      swap1\n      tag_21\n      swap2\n      swap1\n      tag_22\n      jump\t// in\n    tag_21:\n      tag_23\n      jump\t// in\n    tag_20:\n      stop\n        /* \"contracts/lastwill.sol\":2491:2605  function etherToWei(uint valueEther) public pure returns (uint)... */\n    tag_7:\n      tag_24\n      0x04\n      dup1\n      calldatasize\n      sub\n      dup2\n      add\n      swap1\n      tag_25\n      swap2\n      swap1\n      tag_10\n      jump\t// in\n    tag_25:\n      tag_26\n      jump\t// in\n    tag_24:\n      mload(0x40)\n      tag_27\n      swap2\n      swap1\n      tag_19\n      jump\t// in\n    tag_27:\n      mload(0x40)\n      dup1\n      swap2\n      sub\n      swap1\n      return\n        /* \"contracts/lastwill.sol\":677:704  Beneficiary[] public Person */\n    tag_11:\n      0x04\n      dup2\n      dup2\n      sload\n      dup2\n      lt\n      tag_28\n      jumpi\n      0x00\n      dup1\n      revert\n    tag_28:\n      swap1\n      0x00\n      mstore\n      keccak256(0x00, 0x20)\n      swap1\n      0x02\n      mul\n      add\n      0x00\n      swap2\n      pop\n      swap1\n      pop\n      dup1\n      0x00\n      add\n      0x00\n      swap1\n      sload\n      swap1\n      0x0100\n      exp\n      swap1\n      div\n      0xffffffffffffffffffffffffffffffffffffffff\n      and\n      swap1\n      dup1\n      0x01\n      add\n      sload\n      swap1\n      pop\n      dup3\n      jump\t// out\n        /* \"contracts/lastwill.sol\":2355:2453  function deceased() public onlyOwner {... */\n    tag_15:\n        /* \"contracts/lastwill.sol\":833:838  owner */\n      0x01\n      0x00\n      swap1\n      sload\n      swap1\n      0x0100\n      exp\n      swap1\n      div\n      0xffffffffffffffffffffffffffffffffffffffff\n      and\n        /* \"contracts/lastwill.sol\":819:838  msg.sender == owner */\n      0xffffffffffffffffffffffffffffffffffffffff\n      and\n        /* \"contracts/lastwill.sol\":819:829  msg.sender */\n      caller\n        /* \"contracts/lastwill.sol\":819:838  msg.sender == owner */\n      0xffffffffffffffffffffffffffffffffffffffff\n      and\n      eq\n        /* \"contracts/lastwill.sol\":811:880  require(msg.sender == owner, \"You are not the owner of the contract\") */\n      tag_31\n      jumpi\n      mload(0x40)\n      0x08c379a000000000000000000000000000000000000000000000000000000000\n      dup2\n      mstore\n      0x04\n      add\n      tag_32\n      swap1\n      tag_33\n      jump\t// in\n    tag_32:\n      mload(0x40)\n      dup1\n      swap2\n      sub\n      swap1\n      revert\n    tag_31:\n        /* \"contracts/lastwill.sol\":2416:2420  true */\n      0x01\n        /* \"contracts/lastwill.sol\":2403:2413  isDeceased */\n      0x03\n      0x00\n        /* \"contracts/lastwill.sol\":2403:2420  isDeceased = true */\n      0x0100\n      exp\n      dup2\n      sload\n      dup2\n      0xff\n      mul\n      not\n      and\n      swap1\n      dup4\n      iszero\n      iszero\n      mul\n      or\n      swap1\n      sstore\n      pop\n        /* \"contracts/lastwill.sol\":2431:2445  distriubuted() */\n      tag_35\n        /* \"contracts/lastwill.sol\":2431:2443  distriubuted */\n      tag_36\n        /* \"contracts/lastwill.sol\":2431:2445  distriubuted() */\n      jump\t// in\n    tag_35:\n        /* \"contracts/lastwill.sol\":2355:2453  function deceased() public onlyOwner {... */\n      jump\t// out\n        /* \"contracts/lastwill.sol\":234:277  uint public balance = address(this).balance */\n    tag_17:\n      sload(0x00)\n      dup2\n      jump\t// out\n        /* \"contracts/lastwill.sol\":1237:2031  function benificerdetails(address payable beneficiaryAccounts, uint beneficiaryamount)  public {... */\n    tag_23:\n        /* \"contracts/lastwill.sol\":1343:1364  uint remainingToAllot */\n      0x00\n        /* \"contracts/lastwill.sol\":1406:1423  beneficiaryamount */\n      dup2\n        /* \"contracts/lastwill.sol\":1382:1403  address(this).balance */\n      selfbalance\n        /* \"contracts/lastwill.sol\":1382:1423  address(this).balance > beneficiaryamount */\n      gt\n        /* \"contracts/lastwill.sol\":1379:2022  if(address(this).balance > beneficiaryamount){... */\n      iszero\n      tag_38\n      jumpi\n        /* \"contracts/lastwill.sol\":1446:1452  uint j */\n      0x00\n        /* \"contracts/lastwill.sol\":1441:1665  for( uint j = 0 ; j< Person.length ; j++ ){... */\n    tag_39:\n        /* \"contracts/lastwill.sol\":1462:1468  Person */\n      0x04\n        /* \"contracts/lastwill.sol\":1462:1475  Person.length */\n      dup1\n      sload\n      swap1\n      pop\n        /* \"contracts/lastwill.sol\":1459:1460  j */\n      dup2\n        /* \"contracts/lastwill.sol\":1459:1475  j< Person.length */\n      lt\n        /* \"contracts/lastwill.sol\":1441:1665  for( uint j = 0 ; j< Person.length ; j++ ){... */\n      iszero\n      tag_40\n      jumpi\n        /* \"contracts/lastwill.sol\":1553:1569  remainingToAllot */\n      dup2\n        /* \"contracts/lastwill.sol\":1523:1529  Person */\n      0x04\n        /* \"contracts/lastwill.sol\":1530:1531  j */\n      dup3\n        /* \"contracts/lastwill.sol\":1523:1532  Person[j] */\n      dup2\n      sload\n      dup2\n      lt\n      tag_42\n      jumpi\n      tag_43\n      tag_44\n      jump\t// in\n    tag_43:\n    tag_42:\n      swap1\n      0x00\n      mstore\n      keccak256(0x00, 0x20)\n      swap1\n      0x02\n      mul\n      add\n        /* \"contracts/lastwill.sol\":1523:1550  Person[j].beneficiaryamount */\n      0x01\n      add\n      sload\n        /* \"contracts/lastwill.sol\":1523:1569  Person[j].beneficiaryamount + remainingToAllot */\n      tag_46\n      swap2\n      swap1\n      tag_47\n      jump\t// in\n    tag_46:\n        /* \"contracts/lastwill.sol\":1504:1569  remainingToAllot = Person[j].beneficiaryamount + remainingToAllot */\n      swap2\n      pop\n        /* \"contracts/lastwill.sol\":1478:1481  j++ */\n      dup1\n      dup1\n      tag_48\n      swap1\n      tag_49\n      jump\t// in\n    tag_48:\n      swap2\n      pop\n      pop\n        /* \"contracts/lastwill.sol\":1441:1665  for( uint j = 0 ; j< Person.length ; j++ ){... */\n      jump(tag_39)\n    tag_40:\n      pop\n        /* \"contracts/lastwill.sol\":1723:1740  beneficiaryamount */\n      dup2\n        /* \"contracts/lastwill.sol\":1704:1720  remainingToAllot */\n      dup2\n        /* \"contracts/lastwill.sol\":1704:1740  remainingToAllot + beneficiaryamount */\n      tag_50\n      swap2\n      swap1\n      tag_47\n      jump\t// in\n    tag_50:\n        /* \"contracts/lastwill.sol\":1685:1740  remainingToAllot = remainingToAllot + beneficiaryamount */\n      swap1\n      pop\n        /* \"contracts/lastwill.sol\":1783:1804  address(this).balance */\n      selfbalance\n        /* \"contracts/lastwill.sol\":1764:1780  remainingToAllot */\n      dup2\n        /* \"contracts/lastwill.sol\":1764:1804  remainingToAllot < address(this).balance */\n      lt\n        /* \"contracts/lastwill.sol\":1764:1857  remainingToAllot < address(this).balance  && (address(this).balance - remainingToAllot >= 0 ) */\n      dup1\n      iszero\n      tag_51\n      jumpi\n      pop\n        /* \"contracts/lastwill.sol\":1854:1855  0 */\n      0x00\n        /* \"contracts/lastwill.sol\":1834:1850  remainingToAllot */\n      dup2\n        /* \"contracts/lastwill.sol\":1810:1831  address(this).balance */\n      selfbalance\n        /* \"contracts/lastwill.sol\":1810:1850  address(this).balance - remainingToAllot */\n      tag_52\n      swap2\n      swap1\n      tag_53\n      jump\t// in\n    tag_52:\n        /* \"contracts/lastwill.sol\":1810:1855  address(this).balance - remainingToAllot >= 0 */\n      lt\n      iszero\n        /* \"contracts/lastwill.sol\":1764:1857  remainingToAllot < address(this).balance  && (address(this).balance - remainingToAllot >= 0 ) */\n    tag_51:\n        /* \"contracts/lastwill.sol\":1761:2011  if(remainingToAllot < address(this).balance  && (address(this).balance - remainingToAllot >= 0 )){... */\n      iszero\n      tag_54\n      jumpi\n        /* \"contracts/lastwill.sol\":1932:1938  Person */\n      0x04\n        /* \"contracts/lastwill.sol\":1944:1994  Beneficiary(beneficiaryAccounts,beneficiaryamount) */\n      mload(0x40)\n      dup1\n      0x40\n      add\n      0x40\n      mstore\n      dup1\n        /* \"contracts/lastwill.sol\":1956:1975  beneficiaryAccounts */\n      dup6\n        /* \"contracts/lastwill.sol\":1944:1994  Beneficiary(beneficiaryAccounts,beneficiaryamount) */\n      0xffffffffffffffffffffffffffffffffffffffff\n      and\n      dup2\n      mstore\n      0x20\n      add\n        /* \"contracts/lastwill.sol\":1976:1993  beneficiaryamount */\n      dup5\n        /* \"contracts/lastwill.sol\":1944:1994  Beneficiary(beneficiaryAccounts,beneficiaryamount) */\n      dup2\n      mstore\n      pop\n        /* \"contracts/lastwill.sol\":1932:1995  Person.push(Beneficiary(beneficiaryAccounts,beneficiaryamount)) */\n      swap1\n      dup1\n      0x01\n      dup2\n      sload\n      add\n      dup1\n      dup3\n      sstore\n      dup1\n      swap2\n      pop\n      pop\n      0x01\n      swap1\n      sub\n      swap1\n      0x00\n      mstore\n      keccak256(0x00, 0x20)\n      swap1\n      0x02\n      mul\n      add\n      0x00\n      swap1\n      swap2\n      swap1\n      swap2\n      swap1\n      swap2\n      pop\n      0x00\n      dup3\n      add\n      mload\n      dup2\n      0x00\n      add\n      exp(0x0100, 0x00)\n      dup2\n      sload\n      dup2\n      0xffffffffffffffffffffffffffffffffffffffff\n      mul\n      not\n      and\n      swap1\n      dup4\n      0xffffffffffffffffffffffffffffffffffffffff\n      and\n      mul\n      or\n      swap1\n      sstore\n      pop\n      0x20\n      dup3\n      add\n      mload\n      dup2\n      0x01\n      add\n      sstore\n      pop\n      pop\n        /* \"contracts/lastwill.sol\":1761:2011  if(remainingToAllot < address(this).balance  && (address(this).balance - remainingToAllot >= 0 )){... */\n    tag_54:\n        /* \"contracts/lastwill.sol\":1379:2022  if(address(this).balance > beneficiaryamount){... */\n    tag_38:\n        /* \"contracts/lastwill.sol\":1332:2031  {... */\n      pop\n        /* \"contracts/lastwill.sol\":1237:2031  function benificerdetails(address payable beneficiaryAccounts, uint beneficiaryamount)  public {... */\n      pop\n      pop\n      jump\t// out\n        /* \"contracts/lastwill.sol\":2491:2605  function etherToWei(uint valueEther) public pure returns (uint)... */\n    tag_26:\n        /* \"contracts/lastwill.sol\":2549:2553  uint */\n      0x00\n        /* \"contracts/lastwill.sol\":2590:2596  10**18 */\n      0x0de0b6b3a7640000\n        /* \"contracts/lastwill.sol\":2578:2588  valueEther */\n      dup3\n        /* \"contracts/lastwill.sol\":2578:2597  valueEther*(10**18) */\n      tag_57\n      swap2\n      swap1\n      tag_58\n      jump\t// in\n    tag_57:\n        /* \"contracts/lastwill.sol\":2571:2597  return valueEther*(10**18) */\n      swap1\n      pop\n        /* \"contracts/lastwill.sol\":2491:2605  function etherToWei(uint valueEther) public pure returns (uint)... */\n      swap2\n      swap1\n      pop\n      jump\t// out\n        /* \"contracts/lastwill.sol\":2090:2297  function distriubuted() private isOwnerDeceased {... */\n    tag_36:\n        /* \"contracts/lastwill.sol\":983:987  true */\n      0x01\n        /* \"contracts/lastwill.sol\":970:987  isDeceased== true */\n      iszero\n      iszero\n        /* \"contracts/lastwill.sol\":970:980  isDeceased */\n      0x03\n      0x00\n      swap1\n      sload\n      swap1\n      0x0100\n      exp\n      swap1\n      div\n      0xff\n      and\n        /* \"contracts/lastwill.sol\":970:987  isDeceased== true */\n      iszero\n      iszero\n      eq\n        /* \"contracts/lastwill.sol\":962:1052  require(isDeceased== true, \"Contract owner must be deceased for funds to be distriubuted\") */\n      tag_60\n      jumpi\n      mload(0x40)\n      0x08c379a000000000000000000000000000000000000000000000000000000000\n      dup2\n      mstore\n      0x04\n      add\n      tag_61\n      swap1\n      tag_62\n      jump\t// in\n    tag_61:\n      mload(0x40)\n      dup1\n      swap2\n      sub\n      swap1\n      revert\n    tag_60:\n        /* \"contracts/lastwill.sol\":2154:2160  uint i */\n      0x00\n        /* \"contracts/lastwill.sol\":2149:2290  for( uint i = 0 ; i< Person.length ; i++ ) {  ... */\n    tag_64:\n        /* \"contracts/lastwill.sol\":2170:2176  Person */\n      0x04\n        /* \"contracts/lastwill.sol\":2170:2183  Person.length */\n      dup1\n      sload\n      swap1\n      pop\n        /* \"contracts/lastwill.sol\":2167:2168  i */\n      dup2\n        /* \"contracts/lastwill.sol\":2167:2183  i< Person.length */\n      lt\n        /* \"contracts/lastwill.sol\":2149:2290  for( uint i = 0 ; i< Person.length ; i++ ) {  ... */\n      iszero\n      tag_65\n      jumpi\n        /* \"contracts/lastwill.sol\":2210:2216  Person */\n      0x04\n        /* \"contracts/lastwill.sol\":2217:2218  i */\n      dup2\n        /* \"contracts/lastwill.sol\":2210:2219  Person[i] */\n      dup2\n      sload\n      dup2\n      lt\n      tag_67\n      jumpi\n      tag_68\n      tag_44\n      jump\t// in\n    tag_68:\n    tag_67:\n      swap1\n      0x00\n      mstore\n      keccak256(0x00, 0x20)\n      swap1\n      0x02\n      mul\n      add\n        /* \"contracts/lastwill.sol\":2210:2239  Person[i].beneficiaryAccounts */\n      0x00\n      add\n      0x00\n      swap1\n      sload\n      swap1\n      0x0100\n      exp\n      swap1\n      div\n      0xffffffffffffffffffffffffffffffffffffffff\n      and\n        /* \"contracts/lastwill.sol\":2209:2249  (Person[i].beneficiaryAccounts).transfer */\n      0xffffffffffffffffffffffffffffffffffffffff\n      and\n        /* \"contracts/lastwill.sol\":2209:2278  (Person[i].beneficiaryAccounts).transfer(Person[i].beneficiaryamount) */\n      0x08fc\n        /* \"contracts/lastwill.sol\":2250:2256  Person */\n      0x04\n        /* \"contracts/lastwill.sol\":2257:2258  i */\n      dup4\n        /* \"contracts/lastwill.sol\":2250:2259  Person[i] */\n      dup2\n      sload\n      dup2\n      lt\n      tag_70\n      jumpi\n      tag_71\n      tag_44\n      jump\t// in\n    tag_71:\n    tag_70:\n      swap1\n      0x00\n      mstore\n      keccak256(0x00, 0x20)\n      swap1\n      0x02\n      mul\n      add\n        /* \"contracts/lastwill.sol\":2250:2277  Person[i].beneficiaryamount */\n      0x01\n      add\n      sload\n        /* \"contracts/lastwill.sol\":2209:2278  (Person[i].beneficiaryAccounts).transfer(Person[i].beneficiaryamount) */\n      swap1\n      dup2\n      iszero\n      mul\n      swap1\n      mload(0x40)\n      0x00\n      mload(0x40)\n      dup1\n      dup4\n      sub\n      dup2\n      dup6\n      dup9\n      dup9\n      call\n      swap4\n      pop\n      pop\n      pop\n      pop\n      iszero\n      dup1\n      iszero\n      tag_74\n      jumpi\n      returndatasize\n      0x00\n      dup1\n      returndatacopy\n      revert(0x00, returndatasize)\n    tag_74:\n      pop\n        /* \"contracts/lastwill.sol\":2186:2189  i++ */\n      dup1\n      dup1\n      tag_75\n      swap1\n      tag_49\n      jump\t// in\n    tag_75:\n      swap2\n      pop\n      pop\n        /* \"contracts/lastwill.sol\":2149:2290  for( uint i = 0 ; i< Person.length ; i++ ) {  ... */\n      jump(tag_64)\n    tag_65:\n      pop\n        /* \"contracts/lastwill.sol\":2090:2297  function distriubuted() private isOwnerDeceased {... */\n      jump\t// out\n        /* \"#utility.yul\":88:205   */\n    tag_77:\n        /* \"#utility.yul\":197:198   */\n      0x00\n        /* \"#utility.yul\":194:195   */\n      dup1\n        /* \"#utility.yul\":187:199   */\n      revert\n        /* \"#utility.yul\":334:411   */\n    tag_79:\n        /* \"#utility.yul\":371:378   */\n      0x00\n        /* \"#utility.yul\":400:405   */\n      dup2\n        /* \"#utility.yul\":389:405   */\n      swap1\n      pop\n        /* \"#utility.yul\":334:411   */\n      swap2\n      swap1\n      pop\n      jump\t// out\n        /* \"#utility.yul\":417:539   */\n    tag_80:\n        /* \"#utility.yul\":490:514   */\n      tag_100\n        /* \"#utility.yul\":508:513   */\n      dup2\n        /* \"#utility.yul\":490:514   */\n      tag_79\n      jump\t// in\n    tag_100:\n        /* \"#utility.yul\":483:488   */\n      dup2\n        /* \"#utility.yul\":480:515   */\n      eq\n        /* \"#utility.yul\":470:533   */\n      tag_101\n      jumpi\n        /* \"#utility.yul\":529:530   */\n      0x00\n        /* \"#utility.yul\":526:527   */\n      dup1\n        /* \"#utility.yul\":519:531   */\n      revert\n        /* \"#utility.yul\":470:533   */\n    tag_101:\n        /* \"#utility.yul\":417:539   */\n      pop\n      jump\t// out\n        /* \"#utility.yul\":545:684   */\n    tag_81:\n        /* \"#utility.yul\":591:596   */\n      0x00\n        /* \"#utility.yul\":629:635   */\n      dup2\n        /* \"#utility.yul\":616:636   */\n      calldataload\n        /* \"#utility.yul\":607:636   */\n      swap1\n      pop\n        /* \"#utility.yul\":645:678   */\n      tag_103\n        /* \"#utility.yul\":672:677   */\n      dup2\n        /* \"#utility.yul\":645:678   */\n      tag_80\n      jump\t// in\n    tag_103:\n        /* \"#utility.yul\":545:684   */\n      swap3\n      swap2\n      pop\n      pop\n      jump\t// out\n        /* \"#utility.yul\":690:1019   */\n    tag_10:\n        /* \"#utility.yul\":749:755   */\n      0x00\n        /* \"#utility.yul\":798:800   */\n      0x20\n        /* \"#utility.yul\":786:795   */\n      dup3\n        /* \"#utility.yul\":777:784   */\n      dup5\n        /* \"#utility.yul\":773:796   */\n      sub\n        /* \"#utility.yul\":769:801   */\n      slt\n        /* \"#utility.yul\":766:885   */\n      iszero\n      tag_105\n      jumpi\n        /* \"#utility.yul\":804:883   */\n      tag_106\n      tag_77\n      jump\t// in\n    tag_106:\n        /* \"#utility.yul\":766:885   */\n    tag_105:\n        /* \"#utility.yul\":924:925   */\n      0x00\n        /* \"#utility.yul\":949:1002   */\n      tag_107\n        /* \"#utility.yul\":994:1001   */\n      dup5\n        /* \"#utility.yul\":985:991   */\n      dup3\n        /* \"#utility.yul\":974:983   */\n      dup6\n        /* \"#utility.yul\":970:992   */\n      add\n        /* \"#utility.yul\":949:1002   */\n      tag_81\n      jump\t// in\n    tag_107:\n        /* \"#utility.yul\":939:1002   */\n      swap2\n      pop\n        /* \"#utility.yul\":895:1012   */\n      pop\n        /* \"#utility.yul\":690:1019   */\n      swap3\n      swap2\n      pop\n      pop\n      jump\t// out\n        /* \"#utility.yul\":1025:1151   */\n    tag_82:\n        /* \"#utility.yul\":1062:1069   */\n      0x00\n        /* \"#utility.yul\":1102:1144   */\n      0xffffffffffffffffffffffffffffffffffffffff\n        /* \"#utility.yul\":1095:1100   */\n      dup3\n        /* \"#utility.yul\":1091:1145   */\n      and\n        /* \"#utility.yul\":1080:1145   */\n      swap1\n      pop\n        /* \"#utility.yul\":1025:1151   */\n      swap2\n      swap1\n      pop\n      jump\t// out\n        /* \"#utility.yul\":1157:1261   */\n    tag_83:\n        /* \"#utility.yul\":1202:1209   */\n      0x00\n        /* \"#utility.yul\":1231:1255   */\n      tag_110\n        /* \"#utility.yul\":1249:1254   */\n      dup3\n        /* \"#utility.yul\":1231:1255   */\n      tag_82\n      jump\t// in\n    tag_110:\n        /* \"#utility.yul\":1220:1255   */\n      swap1\n      pop\n        /* \"#utility.yul\":1157:1261   */\n      swap2\n      swap1\n      pop\n      jump\t// out\n        /* \"#utility.yul\":1267:1409   */\n    tag_84:\n        /* \"#utility.yul\":1370:1402   */\n      tag_112\n        /* \"#utility.yul\":1396:1401   */\n      dup2\n        /* \"#utility.yul\":1370:1402   */\n      tag_83\n      jump\t// in\n    tag_112:\n        /* \"#utility.yul\":1365:1368   */\n      dup3\n        /* \"#utility.yul\":1358:1403   */\n      mstore\n        /* \"#utility.yul\":1267:1409   */\n      pop\n      pop\n      jump\t// out\n        /* \"#utility.yul\":1415:1533   */\n    tag_85:\n        /* \"#utility.yul\":1502:1526   */\n      tag_114\n        /* \"#utility.yul\":1520:1525   */\n      dup2\n        /* \"#utility.yul\":1502:1526   */\n      tag_79\n      jump\t// in\n    tag_114:\n        /* \"#utility.yul\":1497:1500   */\n      dup3\n        /* \"#utility.yul\":1490:1527   */\n      mstore\n        /* \"#utility.yul\":1415:1533   */\n      pop\n      pop\n      jump\t// out\n        /* \"#utility.yul\":1539:1903   */\n    tag_13:\n        /* \"#utility.yul\":1676:1680   */\n      0x00\n        /* \"#utility.yul\":1714:1716   */\n      0x40\n        /* \"#utility.yul\":1703:1712   */\n      dup3\n        /* \"#utility.yul\":1699:1717   */\n      add\n        /* \"#utility.yul\":1691:1717   */\n      swap1\n      pop\n        /* \"#utility.yul\":1727:1814   */\n      tag_116\n        /* \"#utility.yul\":1811:1812   */\n      0x00\n        /* \"#utility.yul\":1800:1809   */\n      dup4\n        /* \"#utility.yul\":1796:1813   */\n      add\n        /* \"#utility.yul\":1787:1793   */\n      dup6\n        /* \"#utility.yul\":1727:1814   */\n      tag_84\n      jump\t// in\n    tag_116:\n        /* \"#utility.yul\":1824:1896   */\n      tag_117\n        /* \"#utility.yul\":1892:1894   */\n      0x20\n        /* \"#utility.yul\":1881:1890   */\n      dup4\n        /* \"#utility.yul\":1877:1895   */\n      add\n        /* \"#utility.yul\":1868:1874   */\n      dup5\n        /* \"#utility.yul\":1824:1896   */\n      tag_85\n      jump\t// in\n    tag_117:\n        /* \"#utility.yul\":1539:1903   */\n      swap4\n      swap3\n      pop\n      pop\n      pop\n      jump\t// out\n        /* \"#utility.yul\":1909:2131   */\n    tag_19:\n        /* \"#utility.yul\":2002:2006   */\n      0x00\n        /* \"#utility.yul\":2040:2042   */\n      0x20\n        /* \"#utility.yul\":2029:2038   */\n      dup3\n        /* \"#utility.yul\":2025:2043   */\n      add\n        /* \"#utility.yul\":2017:2043   */\n      swap1\n      pop\n        /* \"#utility.yul\":2053:2124   */\n      tag_119\n        /* \"#utility.yul\":2121:2122   */\n      0x00\n        /* \"#utility.yul\":2110:2119   */\n      dup4\n        /* \"#utility.yul\":2106:2123   */\n      add\n        /* \"#utility.yul\":2097:2103   */\n      dup5\n        /* \"#utility.yul\":2053:2124   */\n      tag_85\n      jump\t// in\n    tag_119:\n        /* \"#utility.yul\":1909:2131   */\n      swap3\n      swap2\n      pop\n      pop\n      jump\t// out\n        /* \"#utility.yul\":2137:2275   */\n    tag_86:\n        /* \"#utility.yul\":2218:2250   */\n      tag_121\n        /* \"#utility.yul\":2244:2249   */\n      dup2\n        /* \"#utility.yul\":2218:2250   */\n      tag_83\n      jump\t// in\n    tag_121:\n        /* \"#utility.yul\":2211:2216   */\n      dup2\n        /* \"#utility.yul\":2208:2251   */\n      eq\n        /* \"#utility.yul\":2198:2269   */\n      tag_122\n      jumpi\n        /* \"#utility.yul\":2265:2266   */\n      0x00\n        /* \"#utility.yul\":2262:2263   */\n      dup1\n        /* \"#utility.yul\":2255:2267   */\n      revert\n        /* \"#utility.yul\":2198:2269   */\n    tag_122:\n        /* \"#utility.yul\":2137:2275   */\n      pop\n      jump\t// out\n        /* \"#utility.yul\":2281:2436   */\n    tag_87:\n        /* \"#utility.yul\":2335:2340   */\n      0x00\n        /* \"#utility.yul\":2373:2379   */\n      dup2\n        /* \"#utility.yul\":2360:2380   */\n      calldataload\n        /* \"#utility.yul\":2351:2380   */\n      swap1\n      pop\n        /* \"#utility.yul\":2389:2430   */\n      tag_124\n        /* \"#utility.yul\":2424:2429   */\n      dup2\n        /* \"#utility.yul\":2389:2430   */\n      tag_86\n      jump\t// in\n    tag_124:\n        /* \"#utility.yul\":2281:2436   */\n      swap3\n      swap2\n      pop\n      pop\n      jump\t// out\n        /* \"#utility.yul\":2442:2932   */\n    tag_22:\n        /* \"#utility.yul\":2518:2524   */\n      0x00\n        /* \"#utility.yul\":2526:2532   */\n      dup1\n        /* \"#utility.yul\":2575:2577   */\n      0x40\n        /* \"#utility.yul\":2563:2572   */\n      dup4\n        /* \"#utility.yul\":2554:2561   */\n      dup6\n        /* \"#utility.yul\":2550:2573   */\n      sub\n        /* \"#utility.yul\":2546:2578   */\n      slt\n        /* \"#utility.yul\":2543:2662   */\n      iszero\n      tag_126\n      jumpi\n        /* \"#utility.yul\":2581:2660   */\n      tag_127\n      tag_77\n      jump\t// in\n    tag_127:\n        /* \"#utility.yul\":2543:2662   */\n    tag_126:\n        /* \"#utility.yul\":2701:2702   */\n      0x00\n        /* \"#utility.yul\":2726:2787   */\n      tag_128\n        /* \"#utility.yul\":2779:2786   */\n      dup6\n        /* \"#utility.yul\":2770:2776   */\n      dup3\n        /* \"#utility.yul\":2759:2768   */\n      dup7\n        /* \"#utility.yul\":2755:2777   */\n      add\n        /* \"#utility.yul\":2726:2787   */\n      tag_87\n      jump\t// in\n    tag_128:\n        /* \"#utility.yul\":2716:2787   */\n      swap3\n      pop\n        /* \"#utility.yul\":2672:2797   */\n      pop\n        /* \"#utility.yul\":2836:2838   */\n      0x20\n        /* \"#utility.yul\":2862:2915   */\n      tag_129\n        /* \"#utility.yul\":2907:2914   */\n      dup6\n        /* \"#utility.yul\":2898:2904   */\n      dup3\n        /* \"#utility.yul\":2887:2896   */\n      dup7\n        /* \"#utility.yul\":2883:2905   */\n      add\n        /* \"#utility.yul\":2862:2915   */\n      tag_81\n      jump\t// in\n    tag_129:\n        /* \"#utility.yul\":2852:2915   */\n      swap2\n      pop\n        /* \"#utility.yul\":2807:2925   */\n      pop\n        /* \"#utility.yul\":2442:2932   */\n      swap3\n      pop\n      swap3\n      swap1\n      pop\n      jump\t// out\n        /* \"#utility.yul\":2938:3107   */\n    tag_88:\n        /* \"#utility.yul\":3022:3033   */\n      0x00\n        /* \"#utility.yul\":3056:3062   */\n      dup3\n        /* \"#utility.yul\":3051:3054   */\n      dup3\n        /* \"#utility.yul\":3044:3063   */\n      mstore\n        /* \"#utility.yul\":3096:3100   */\n      0x20\n        /* \"#utility.yul\":3091:3094   */\n      dup3\n        /* \"#utility.yul\":3087:3101   */\n      add\n        /* \"#utility.yul\":3072:3101   */\n      swap1\n      pop\n        /* \"#utility.yul\":2938:3107   */\n      swap3\n      swap2\n      pop\n      pop\n      jump\t// out\n        /* \"#utility.yul\":3113:3337   */\n    tag_89:\n        /* \"#utility.yul\":3253:3287   */\n      0x596f7520617265206e6f7420746865206f776e6572206f662074686520636f6e\n        /* \"#utility.yul\":3249:3250   */\n      0x00\n        /* \"#utility.yul\":3241:3247   */\n      dup3\n        /* \"#utility.yul\":3237:3251   */\n      add\n        /* \"#utility.yul\":3230:3288   */\n      mstore\n        /* \"#utility.yul\":3322:3329   */\n      0x7472616374000000000000000000000000000000000000000000000000000000\n        /* \"#utility.yul\":3317:3319   */\n      0x20\n        /* \"#utility.yul\":3309:3315   */\n      dup3\n        /* \"#utility.yul\":3305:3320   */\n      add\n        /* \"#utility.yul\":3298:3330   */\n      mstore\n        /* \"#utility.yul\":3113:3337   */\n      pop\n      jump\t// out\n        /* \"#utility.yul\":3343:3709   */\n    tag_90:\n        /* \"#utility.yul\":3485:3488   */\n      0x00\n        /* \"#utility.yul\":3506:3573   */\n      tag_133\n        /* \"#utility.yul\":3570:3572   */\n      0x25\n        /* \"#utility.yul\":3565:3568   */\n      dup4\n        /* \"#utility.yul\":3506:3573   */\n      tag_88\n      jump\t// in\n    tag_133:\n        /* \"#utility.yul\":3499:3573   */\n      swap2\n      pop\n        /* \"#utility.yul\":3582:3675   */\n      tag_134\n        /* \"#utility.yul\":3671:3674   */\n      dup3\n        /* \"#utility.yul\":3582:3675   */\n      tag_89\n      jump\t// in\n    tag_134:\n        /* \"#utility.yul\":3700:3702   */\n      0x40\n        /* \"#utility.yul\":3695:3698   */\n      dup3\n        /* \"#utility.yul\":3691:3703   */\n      add\n        /* \"#utility.yul\":3684:3703   */\n      swap1\n      pop\n        /* \"#utility.yul\":3343:3709   */\n      swap2\n      swap1\n      pop\n      jump\t// out\n        /* \"#utility.yul\":3715:4134   */\n    tag_33:\n        /* \"#utility.yul\":3881:3885   */\n      0x00\n        /* \"#utility.yul\":3919:3921   */\n      0x20\n        /* \"#utility.yul\":3908:3917   */\n      dup3\n        /* \"#utility.yul\":3904:3922   */\n      add\n        /* \"#utility.yul\":3896:3922   */\n      swap1\n      pop\n        /* \"#utility.yul\":3968:3977   */\n      dup2\n        /* \"#utility.yul\":3962:3966   */\n      dup2\n        /* \"#utility.yul\":3958:3978   */\n      sub\n        /* \"#utility.yul\":3954:3955   */\n      0x00\n        /* \"#utility.yul\":3943:3952   */\n      dup4\n        /* \"#utility.yul\":3939:3956   */\n      add\n        /* \"#utility.yul\":3932:3979   */\n      mstore\n        /* \"#utility.yul\":3996:4127   */\n      tag_136\n        /* \"#utility.yul\":4122:4126   */\n      dup2\n        /* \"#utility.yul\":3996:4127   */\n      tag_90\n      jump\t// in\n    tag_136:\n        /* \"#utility.yul\":3988:4127   */\n      swap1\n      pop\n        /* \"#utility.yul\":3715:4134   */\n      swap2\n      swap1\n      pop\n      jump\t// out\n        /* \"#utility.yul\":4140:4320   */\n    tag_44:\n        /* \"#utility.yul\":4188:4265   */\n      0x4e487b7100000000000000000000000000000000000000000000000000000000\n        /* \"#utility.yul\":4185:4186   */\n      0x00\n        /* \"#utility.yul\":4178:4266   */\n      mstore\n        /* \"#utility.yul\":4285:4289   */\n      0x32\n        /* \"#utility.yul\":4282:4283   */\n      0x04\n        /* \"#utility.yul\":4275:4290   */\n      mstore\n        /* \"#utility.yul\":4309:4313   */\n      0x24\n        /* \"#utility.yul\":4306:4307   */\n      0x00\n        /* \"#utility.yul\":4299:4314   */\n      revert\n        /* \"#utility.yul\":4326:4506   */\n    tag_91:\n        /* \"#utility.yul\":4374:4451   */\n      0x4e487b7100000000000000000000000000000000000000000000000000000000\n        /* \"#utility.yul\":4371:4372   */\n      0x00\n        /* \"#utility.yul\":4364:4452   */\n      mstore\n        /* \"#utility.yul\":4471:4475   */\n      0x11\n        /* \"#utility.yul\":4468:4469   */\n      0x04\n        /* \"#utility.yul\":4461:4476   */\n      mstore\n        /* \"#utility.yul\":4495:4499   */\n      0x24\n        /* \"#utility.yul\":4492:4493   */\n      0x00\n        /* \"#utility.yul\":4485:4500   */\n      revert\n        /* \"#utility.yul\":4512:4703   */\n    tag_47:\n        /* \"#utility.yul\":4552:4555   */\n      0x00\n        /* \"#utility.yul\":4571:4591   */\n      tag_140\n        /* \"#utility.yul\":4589:4590   */\n      dup3\n        /* \"#utility.yul\":4571:4591   */\n      tag_79\n      jump\t// in\n    tag_140:\n        /* \"#utility.yul\":4566:4591   */\n      swap2\n      pop\n        /* \"#utility.yul\":4605:4625   */\n      tag_141\n        /* \"#utility.yul\":4623:4624   */\n      dup4\n        /* \"#utility.yul\":4605:4625   */\n      tag_79\n      jump\t// in\n    tag_141:\n        /* \"#utility.yul\":4600:4625   */\n      swap3\n      pop\n        /* \"#utility.yul\":4648:4649   */\n      dup3\n        /* \"#utility.yul\":4645:4646   */\n      dup3\n        /* \"#utility.yul\":4641:4650   */\n      add\n        /* \"#utility.yul\":4634:4650   */\n      swap1\n      pop\n        /* \"#utility.yul\":4669:4672   */\n      dup1\n        /* \"#utility.yul\":4666:4667   */\n      dup3\n        /* \"#utility.yul\":4663:4673   */\n      gt\n        /* \"#utility.yul\":4660:4696   */\n      iszero\n      tag_142\n      jumpi\n        /* \"#utility.yul\":4676:4694   */\n      tag_143\n      tag_91\n      jump\t// in\n    tag_143:\n        /* \"#utility.yul\":4660:4696   */\n    tag_142:\n        /* \"#utility.yul\":4512:4703   */\n      swap3\n      swap2\n      pop\n      pop\n      jump\t// out\n        /* \"#utility.yul\":4709:4942   */\n    tag_49:\n        /* \"#utility.yul\":4748:4751   */\n      0x00\n        /* \"#utility.yul\":4771:4795   */\n      tag_145\n        /* \"#utility.yul\":4789:4794   */\n      dup3\n        /* \"#utility.yul\":4771:4795   */\n      tag_79\n      jump\t// in\n    tag_145:\n        /* \"#utility.yul\":4762:4795   */\n      swap2\n      pop\n        /* \"#utility.yul\":4817:4883   */\n      0xffffffffffffffffffffffffffffffffffffffffffffffffffffffffffffffff\n        /* \"#utility.yul\":4810:4815   */\n      dup3\n        /* \"#utility.yul\":4807:4884   */\n      sub\n        /* \"#utility.yul\":4804:4907   */\n      tag_146\n      jumpi\n        /* \"#utility.yul\":4887:4905   */\n      tag_147\n      tag_91\n      jump\t// in\n    tag_147:\n        /* \"#utility.yul\":4804:4907   */\n    tag_146:\n        /* \"#utility.yul\":4934:4935   */\n      0x01\n        /* \"#utility.yul\":4927:4932   */\n      dup3\n        /* \"#utility.yul\":4923:4936   */\n      add\n        /* \"#utility.yul\":4916:4936   */\n      swap1\n      pop\n        /* \"#utility.yul\":4709:4942   */\n      swap2\n      swap1\n      pop\n      jump\t// out\n        /* \"#utility.yul\":4948:5142   */\n    tag_53:\n        /* \"#utility.yul\":4988:4992   */\n      0x00\n        /* \"#utility.yul\":5008:5028   */\n      tag_149\n        /* \"#utility.yul\":5026:5027   */\n      dup3\n        /* \"#utility.yul\":5008:5028   */\n      tag_79\n      jump\t// in\n    tag_149:\n        /* \"#utility.yul\":5003:5028   */\n      swap2\n      pop\n        /* \"#utility.yul\":5042:5062   */\n      tag_150\n        /* \"#utility.yul\":5060:5061   */\n      dup4\n        /* \"#utility.yul\":5042:5062   */\n      tag_79\n      jump\t// in\n    tag_150:\n        /* \"#utility.yul\":5037:5062   */\n      swap3\n      pop\n        /* \"#utility.yul\":5086:5087   */\n      dup3\n        /* \"#utility.yul\":5083:5084   */\n      dup3\n        /* \"#utility.yul\":5079:5088   */\n      sub\n        /* \"#utility.yul\":5071:5088   */\n      swap1\n      pop\n        /* \"#utility.yul\":5110:5111   */\n      dup2\n        /* \"#utility.yul\":5104:5108   */\n      dup2\n        /* \"#utility.yul\":5101:5112   */\n      gt\n        /* \"#utility.yul\":5098:5135   */\n      iszero\n      tag_151\n      jumpi\n        /* \"#utility.yul\":5115:5133   */\n      tag_152\n      tag_91\n      jump\t// in\n    tag_152:\n        /* \"#utility.yul\":5098:5135   */\n    tag_151:\n        /* \"#utility.yul\":4948:5142   */\n      swap3\n      swap2\n      pop\n      pop\n      jump\t// out\n        /* \"#utility.yul\":5148:5558   */\n    tag_58:\n        /* \"#utility.yul\":5188:5195   */\n      0x00\n        /* \"#utility.yul\":5211:5231   */\n      tag_154\n        /* \"#utility.yul\":5229:5230   */\n      dup3\n        /* \"#utility.yul\":5211:5231   */\n      tag_79\n      jump\t// in\n    tag_154:\n        /* \"#utility.yul\":5206:5231   */\n      swap2\n      pop\n        /* \"#utility.yul\":5245:5265   */\n      tag_155\n        /* \"#utility.yul\":5263:5264   */\n      dup4\n        /* \"#utility.yul\":5245:5265   */\n      tag_79\n      jump\t// in\n    tag_155:\n        /* \"#utility.yul\":5240:5265   */\n      swap3\n      pop\n        /* \"#utility.yul\":5300:5301   */\n      dup3\n        /* \"#utility.yul\":5297:5298   */\n      dup3\n        /* \"#utility.yul\":5293:5302   */\n      mul\n        /* \"#utility.yul\":5322:5352   */\n      tag_156\n        /* \"#utility.yul\":5340:5351   */\n      dup2\n        /* \"#utility.yul\":5322:5352   */\n      tag_79\n      jump\t// in\n    tag_156:\n        /* \"#utility.yul\":5311:5352   */\n      swap2\n      pop\n        /* \"#utility.yul\":5501:5502   */\n      dup3\n        /* \"#utility.yul\":5492:5499   */\n      dup3\n        /* \"#utility.yul\":5488:5503   */\n      div\n        /* \"#utility.yul\":5485:5486   */\n      dup5\n        /* \"#utility.yul\":5482:5504   */\n      eq\n        /* \"#utility.yul\":5462:5463   */\n      dup4\n        /* \"#utility.yul\":5455:5464   */\n      iszero\n        /* \"#utility.yul\":5435:5518   */\n      or\n        /* \"#utility.yul\":5412:5551   */\n      tag_157\n      jumpi\n        /* \"#utility.yul\":5531:5549   */\n      tag_158\n      tag_91\n      jump\t// in\n    tag_158:\n        /* \"#utility.yul\":5412:5551   */\n    tag_157:\n        /* \"#utility.yul\":5196:5558   */\n      pop\n        /* \"#utility.yul\":5148:5558   */\n      swap3\n      swap2\n      pop\n      pop\n      jump\t// out\n        /* \"#utility.yul\":5564:5811   */\n    tag_92:\n        /* \"#utility.yul\":5704:5738   */\n      0x436f6e7472616374206f776e6572206d75737420626520646563656173656420\n        /* \"#utility.yul\":5700:5701   */\n      0x00\n        /* \"#utility.yul\":5692:5698   */\n      dup3\n        /* \"#utility.yul\":5688:5702   */\n      add\n        /* \"#utility.yul\":5681:5739   */\n      mstore\n        /* \"#utility.yul\":5773:5803   */\n      0x666f722066756e647320746f2062652064697374726975627574656400000000\n        /* \"#utility.yul\":5768:5770   */\n      0x20\n        /* \"#utility.yul\":5760:5766   */\n      dup3\n        /* \"#utility.yul\":5756:5771   */\n      add\n        /* \"#utility.yul\":5749:5804   */\n      mstore\n        /* \"#utility.yul\":5564:5811   */\n      pop\n      jump\t// out\n        /* \"#utility.yul\":5817:6183   */\n    tag_93:\n        /* \"#utility.yul\":5959:5962   */\n      0x00\n        /* \"#utility.yul\":5980:6047   */\n      tag_161\n        /* \"#utility.yul\":6044:6046   */\n      0x3c\n        /* \"#utility.yul\":6039:6042   */\n      dup4\n        /* \"#utility.yul\":5980:6047   */\n      tag_88\n      jump\t// in\n    tag_161:\n        /* \"#utility.yul\":5973:6047   */\n      swap2\n      pop\n        /* \"#utility.yul\":6056:6149   */\n      tag_162\n        /* \"#utility.yul\":6145:6148   */\n      dup3\n        /* \"#utility.yul\":6056:6149   */\n      tag_92\n      jump\t// in\n    tag_162:\n        /* \"#utility.yul\":6174:6176   */\n      0x40\n        /* \"#utility.yul\":6169:6172   */\n      dup3\n        /* \"#utility.yul\":6165:6177   */\n      add\n        /* \"#utility.yul\":6158:6177   */\n      swap1\n      pop\n        /* \"#utility.yul\":5817:6183   */\n      swap2\n      swap1\n      pop\n      jump\t// out\n        /* \"#utility.yul\":6189:6608   */\n    tag_62:\n        /* \"#utility.yul\":6355:6359   */\n      0x00\n        /* \"#utility.yul\":6393:6395   */\n      0x20\n        /* \"#utility.yul\":6382:6391   */\n      dup3\n        /* \"#utility.yul\":6378:6396   */\n      add\n        /* \"#utility.yul\":6370:6396   */\n      swap1\n      pop\n        /* \"#utility.yul\":6442:6451   */\n      dup2\n        /* \"#utility.yul\":6436:6440   */\n      dup2\n        /* \"#utility.yul\":6432:6452   */\n      sub\n        /* \"#utility.yul\":6428:6429   */\n      0x00\n        /* \"#utility.yul\":6417:6426   */\n      dup4\n        /* \"#utility.yul\":6413:6430   */\n      add\n        /* \"#utility.yul\":6406:6453   */\n      mstore\n        /* \"#utility.yul\":6470:6601   */\n      tag_164\n        /* \"#utility.yul\":6596:6600   */\n      dup2\n        /* \"#utility.yul\":6470:6601   */\n      tag_93\n      jump\t// in\n    tag_164:\n        /* \"#utility.yul\":6462:6601   */\n      swap1\n      pop\n        /* \"#utility.yul\":6189:6608   */\n      swap2\n      swap1\n      pop\n      jump\t// out\n\n    auxdata: 0xa2646970667358221220a1666e15be0c4c2f2aea144db919c61d4dcfb4532a283092fb846c5572d4511964736f6c63430008130033\n}\n",
				"bytecode": {
					"linkReferences": {},
					"object": "6080604052476000556000600360016101000a81548160ff02191690831515021790555033600160006101000a81548173ffffffffffffffffffffffffffffffffffffffff021916908373ffffffffffffffffffffffffffffffffffffffff160217905550346002819055506000600360006101000a81548160ff0219169083151502179055506108bc806100956000396000f3fe608060405234801561001057600080fd5b50600436106100575760003560e01c806371b309c41461005c57806372faf2d91461008d578063b69ef8a814610097578063c2e0287c146100b5578063d8916bb9146100d1575b600080fd5b610076600480360381019061007191906104d4565b610101565b604051610084929190610551565b60405180910390f35b610095610155565b005b61009f61020a565b6040516100ac919061057a565b60405180910390f35b6100cf60048036038101906100ca91906105c1565b610210565b005b6100eb60048036038101906100e691906104d4565b61034f565b6040516100f8919061057a565b60405180910390f35b6004818154811061011157600080fd5b90600052602060002090600202016000915090508060000160009054906101000a900473ffffffffffffffffffffffffffffffffffffffff16908060010154905082565b600160009054906101000a900473ffffffffffffffffffffffffffffffffffffffff1673ffffffffffffffffffffffffffffffffffffffff163373ffffffffffffffffffffffffffffffffffffffff16146101e5576040517f08c379a00000000000000000000000000000000000000000000000000000000081526004016101dc90610684565b60405180910390fd5b6001600360006101000a81548160ff02191690831515021790555061020861036c565b565b60005481565b60008147111561034a5760005b60048054905081101561027057816004828154811061023f5761023e6106a4565b5b90600052602060002090600202016001015461025b9190610702565b9150808061026890610736565b91505061021d565b50818161027d9190610702565b9050478110801561029a575060008147610297919061077e565b10155b1561034957600460405180604001604052808573ffffffffffffffffffffffffffffffffffffffff16815260200184815250908060018154018082558091505060019003906000526020600020906002020160009091909190915060008201518160000160006101000a81548173ffffffffffffffffffffffffffffffffffffffff021916908373ffffffffffffffffffffffffffffffffffffffff1602179055506020820151816001015550505b5b505050565b6000670de0b6b3a76400008261036591906107b2565b9050919050565b60011515600360009054906101000a900460ff161515146103c2576040517f08c379a00000000000000000000000000000000000000000000000000000000081526004016103b990610866565b60405180910390fd5b60005b60048054905081101561049657600481815481106103e6576103e56106a4565b5b906000526020600020906002020160000160009054906101000a900473ffffffffffffffffffffffffffffffffffffffff1673ffffffffffffffffffffffffffffffffffffffff166108fc60048381548110610445576104446106a4565b5b9060005260206000209060020201600101549081150290604051600060405180830381858888f19350505050158015610482573d6000803e3d6000fd5b50808061048e90610736565b9150506103c5565b50565b600080fd5b6000819050919050565b6104b18161049e565b81146104bc57600080fd5b50565b6000813590506104ce816104a8565b92915050565b6000602082840312156104ea576104e9610499565b5b60006104f8848285016104bf565b91505092915050565b600073ffffffffffffffffffffffffffffffffffffffff82169050919050565b600061052c82610501565b9050919050565b61053c81610521565b82525050565b61054b8161049e565b82525050565b60006040820190506105666000830185610533565b6105736020830184610542565b9392505050565b600060208201905061058f6000830184610542565b92915050565b61059e81610521565b81146105a957600080fd5b50565b6000813590506105bb81610595565b92915050565b600080604083850312156105d8576105d7610499565b5b60006105e6858286016105ac565b92505060206105f7858286016104bf565b9150509250929050565b600082825260208201905092915050565b7f596f7520617265206e6f7420746865206f776e6572206f662074686520636f6e60008201527f7472616374000000000000000000000000000000000000000000000000000000602082015250565b600061066e602583610601565b915061067982610612565b604082019050919050565b6000602082019050818103600083015261069d81610661565b9050919050565b7f4e487b7100000000000000000000000000000000000000000000000000000000600052603260045260246000fd5b7f4e487b7100000000000000000000000000000000000000000000000000000000600052601160045260246000fd5b600061070d8261049e565b91506107188361049e565b92508282019050808211156107305761072f6106d3565b5b92915050565b60006107418261049e565b91507fffffffffffffffffffffffffffffffffffffffffffffffffffffffffffffffff8203610773576107726106d3565b5b600182019050919050565b60006107898261049e565b91506107948361049e565b92508282039050818111156107ac576107ab6106d3565b5b92915050565b60006107bd8261049e565b91506107c88361049e565b92508282026107d68161049e565b915082820484148315176107ed576107ec6106d3565b5b5092915050565b7f436f6e7472616374206f776e6572206d7573742062652064656365617365642060008201527f666f722066756e647320746f2062652064697374726975627574656400000000602082015250565b6000610850603c83610601565b915061085b826107f4565b604082019050919050565b6000602082019050818103600083015261087f81610843565b905091905056fea2646970667358221220a1666e15be0c4c2f2aea144db919c61d4dcfb4532a283092fb846c5572d4511964736f6c63430008130033",
					"opcodes": "PUSH1 0x80 PUSH1 0x40 MSTORE SELFBALANCE PUSH1 0x0 SSTORE PUSH1 0x0 PUSH1 0x3 PUSH1 0x1 PUSH2 0x100 EXP DUP2 SLOAD DUP2 PUSH1 0xFF MUL NOT AND SWAP1 DUP4 ISZERO ISZERO MUL OR SWAP1 SSTORE POP CALLER PUSH1 0x1 PUSH1 0x0 PUSH2 0x100 EXP DUP2 SLOAD DUP2 PUSH20 0xFFFFFFFFFFFFFFFFFFFFFFFFFFFFFFFFFFFFFFFF MUL NOT AND SWAP1 DUP4 PUSH20 0xFFFFFFFFFFFFFFFFFFFFFFFFFFFFFFFFFFFFFFFF AND MUL OR SWAP1 SSTORE POP CALLVALUE PUSH1 0x2 DUP2 SWAP1 SSTORE POP PUSH1 0x0 PUSH1 0x3 PUSH1 0x0 PUSH2 0x100 EXP DUP2 SLOAD DUP2 PUSH1 0xFF MUL NOT AND SWAP1 DUP4 ISZERO ISZERO MUL OR SWAP1 SSTORE POP PUSH2 0x8BC DUP1 PUSH2 0x95 PUSH1 0x0 CODECOPY PUSH1 0x0 RETURN INVALID PUSH1 0x80 PUSH1 0x40 MSTORE CALLVALUE DUP1 ISZERO PUSH2 0x10 JUMPI PUSH1 0x0 DUP1 REVERT JUMPDEST POP PUSH1 0x4 CALLDATASIZE LT PUSH2 0x57 JUMPI PUSH1 0x0 CALLDATALOAD PUSH1 0xE0 SHR DUP1 PUSH4 0x71B309C4 EQ PUSH2 0x5C JUMPI DUP1 PUSH4 0x72FAF2D9 EQ PUSH2 0x8D JUMPI DUP1 PUSH4 0xB69EF8A8 EQ PUSH2 0x97 JUMPI DUP1 PUSH4 0xC2E0287C EQ PUSH2 0xB5 JUMPI DUP1 PUSH4 0xD8916BB9 EQ PUSH2 0xD1 JUMPI JUMPDEST PUSH1 0x0 DUP1 REVERT JUMPDEST PUSH2 0x76 PUSH1 0x4 DUP1 CALLDATASIZE SUB DUP2 ADD SWAP1 PUSH2 0x71 SWAP2 SWAP1 PUSH2 0x4D4 JUMP JUMPDEST PUSH2 0x101 JUMP JUMPDEST PUSH1 0x40 MLOAD PUSH2 0x84 SWAP3 SWAP2 SWAP1 PUSH2 0x551 JUMP JUMPDEST PUSH1 0x40 MLOAD DUP1 SWAP2 SUB SWAP1 RETURN JUMPDEST PUSH2 0x95 PUSH2 0x155 JUMP JUMPDEST STOP JUMPDEST PUSH2 0x9F PUSH2 0x20A JUMP JUMPDEST PUSH1 0x40 MLOAD PUSH2 0xAC SWAP2 SWAP1 PUSH2 0x57A JUMP JUMPDEST PUSH1 0x40 MLOAD DUP1 SWAP2 SUB SWAP1 RETURN JUMPDEST PUSH2 0xCF PUSH1 0x4 DUP1 CALLDATASIZE SUB DUP2 ADD SWAP1 PUSH2 0xCA SWAP2 SWAP1 PUSH2 0x5C1 JUMP JUMPDEST PUSH2 0x210 JUMP JUMPDEST STOP JUMPDEST PUSH2 0xEB PUSH1 0x4 DUP1 CALLDATASIZE SUB DUP2 ADD SWAP1 PUSH2 0xE6 SWAP2 SWAP1 PUSH2 0x4D4 JUMP JUMPDEST PUSH2 0x34F JUMP JUMPDEST PUSH1 0x40 MLOAD PUSH2 0xF8 SWAP2 SWAP1 PUSH2 0x57A JUMP JUMPDEST PUSH1 0x40 MLOAD DUP1 SWAP2 SUB SWAP1 RETURN JUMPDEST PUSH1 0x4 DUP2 DUP2 SLOAD DUP2 LT PUSH2 0x111 JUMPI PUSH1 0x0 DUP1 REVERT JUMPDEST SWAP1 PUSH1 0x0 MSTORE PUSH1 0x20 PUSH1 0x0 KECCAK256 SWAP1 PUSH1 0x2 MUL ADD PUSH1 0x0 SWAP2 POP SWAP1 POP DUP1 PUSH1 0x0 ADD PUSH1 0x0 SWAP1 SLOAD SWAP1 PUSH2 0x100 EXP SWAP1 DIV PUSH20 0xFFFFFFFFFFFFFFFFFFFFFFFFFFFFFFFFFFFFFFFF AND SWAP1 DUP1 PUSH1 0x1 ADD SLOAD SWAP1 POP DUP3 JUMP JUMPDEST PUSH1 0x1 PUSH1 0x0 SWAP1 SLOAD SWAP1 PUSH2 0x100 EXP SWAP1 DIV PUSH20 0xFFFFFFFFFFFFFFFFFFFFFFFFFFFFFFFFFFFFFFFF AND PUSH20 0xFFFFFFFFFFFFFFFFFFFFFFFFFFFFFFFFFFFFFFFF AND CALLER PUSH20 0xFFFFFFFFFFFFFFFFFFFFFFFFFFFFFFFFFFFFFFFF AND EQ PUSH2 0x1E5 JUMPI PUSH1 0x40 MLOAD PUSH32 0x8C379A000000000000000000000000000000000000000000000000000000000 DUP2 MSTORE PUSH1 0x4 ADD PUSH2 0x1DC SWAP1 PUSH2 0x684 JUMP JUMPDEST PUSH1 0x40 MLOAD DUP1 SWAP2 SUB SWAP1 REVERT JUMPDEST PUSH1 0x1 PUSH1 0x3 PUSH1 0x0 PUSH2 0x100 EXP DUP2 SLOAD DUP2 PUSH1 0xFF MUL NOT AND SWAP1 DUP4 ISZERO ISZERO MUL OR SWAP1 SSTORE POP PUSH2 0x208 PUSH2 0x36C JUMP JUMPDEST JUMP JUMPDEST PUSH1 0x0 SLOAD DUP2 JUMP JUMPDEST PUSH1 0x0 DUP2 SELFBALANCE GT ISZERO PUSH2 0x34A JUMPI PUSH1 0x0 JUMPDEST PUSH1 0x4 DUP1 SLOAD SWAP1 POP DUP2 LT ISZERO PUSH2 0x270 JUMPI DUP2 PUSH1 0x4 DUP3 DUP2 SLOAD DUP2 LT PUSH2 0x23F JUMPI PUSH2 0x23E PUSH2 0x6A4 JUMP JUMPDEST JUMPDEST SWAP1 PUSH1 0x0 MSTORE PUSH1 0x20 PUSH1 0x0 KECCAK256 SWAP1 PUSH1 0x2 MUL ADD PUSH1 0x1 ADD SLOAD PUSH2 0x25B SWAP2 SWAP1 PUSH2 0x702 JUMP JUMPDEST SWAP2 POP DUP1 DUP1 PUSH2 0x268 SWAP1 PUSH2 0x736 JUMP JUMPDEST SWAP2 POP POP PUSH2 0x21D JUMP JUMPDEST POP DUP2 DUP2 PUSH2 0x27D SWAP2 SWAP1 PUSH2 0x702 JUMP JUMPDEST SWAP1 POP SELFBALANCE DUP2 LT DUP1 ISZERO PUSH2 0x29A JUMPI POP PUSH1 0x0 DUP2 SELFBALANCE PUSH2 0x297 SWAP2 SWAP1 PUSH2 0x77E JUMP JUMPDEST LT ISZERO JUMPDEST ISZERO PUSH2 0x349 JUMPI PUSH1 0x4 PUSH1 0x40 MLOAD DUP1 PUSH1 0x40 ADD PUSH1 0x40 MSTORE DUP1 DUP6 PUSH20 0xFFFFFFFFFFFFFFFFFFFFFFFFFFFFFFFFFFFFFFFF AND DUP2 MSTORE PUSH1 0x20 ADD DUP5 DUP2 MSTORE POP SWAP1 DUP1 PUSH1 0x1 DUP2 SLOAD ADD DUP1 DUP3 SSTORE DUP1 SWAP2 POP POP PUSH1 0x1 SWAP1 SUB SWAP1 PUSH1 0x0 MSTORE PUSH1 0x20 PUSH1 0x0 KECCAK256 SWAP1 PUSH1 0x2 MUL ADD PUSH1 0x0 SWAP1 SWAP2 SWAP1 SWAP2 SWAP1 SWAP2 POP PUSH1 0x0 DUP3 ADD MLOAD DUP2 PUSH1 0x0 ADD PUSH1 0x0 PUSH2 0x100 EXP DUP2 SLOAD DUP2 PUSH20 0xFFFFFFFFFFFFFFFFFFFFFFFFFFFFFFFFFFFFFFFF MUL NOT AND SWAP1 DUP4 PUSH20 0xFFFFFFFFFFFFFFFFFFFFFFFFFFFFFFFFFFFFFFFF AND MUL OR SWAP1 SSTORE POP PUSH1 0x20 DUP3 ADD MLOAD DUP2 PUSH1 0x1 ADD SSTORE POP POP JUMPDEST JUMPDEST POP POP POP JUMP JUMPDEST PUSH1 0x0 PUSH8 0xDE0B6B3A7640000 DUP3 PUSH2 0x365 SWAP2 SWAP1 PUSH2 0x7B2 JUMP JUMPDEST SWAP1 POP SWAP2 SWAP1 POP JUMP JUMPDEST PUSH1 0x1 ISZERO ISZERO PUSH1 0x3 PUSH1 0x0 SWAP1 SLOAD SWAP1 PUSH2 0x100 EXP SWAP1 DIV PUSH1 0xFF AND ISZERO ISZERO EQ PUSH2 0x3C2 JUMPI PUSH1 0x40 MLOAD PUSH32 0x8C379A000000000000000000000000000000000000000000000000000000000 DUP2 MSTORE PUSH1 0x4 ADD PUSH2 0x3B9 SWAP1 PUSH2 0x866 JUMP JUMPDEST PUSH1 0x40 MLOAD DUP1 SWAP2 SUB SWAP1 REVERT JUMPDEST PUSH1 0x0 JUMPDEST PUSH1 0x4 DUP1 SLOAD SWAP1 POP DUP2 LT ISZERO PUSH2 0x496 JUMPI PUSH1 0x4 DUP2 DUP2 SLOAD DUP2 LT PUSH2 0x3E6 JUMPI PUSH2 0x3E5 PUSH2 0x6A4 JUMP JUMPDEST JUMPDEST SWAP1 PUSH1 0x0 MSTORE PUSH1 0x20 PUSH1 0x0 KECCAK256 SWAP1 PUSH1 0x2 MUL ADD PUSH1 0x0 ADD PUSH1 0x0 SWAP1 SLOAD SWAP1 PUSH2 0x100 EXP SWAP1 DIV PUSH20 0xFFFFFFFFFFFFFFFFFFFFFFFFFFFFFFFFFFFFFFFF AND PUSH20 0xFFFFFFFFFFFFFFFFFFFFFFFFFFFFFFFFFFFFFFFF AND PUSH2 0x8FC PUSH1 0x4 DUP4 DUP2 SLOAD DUP2 LT PUSH2 0x445 JUMPI PUSH2 0x444 PUSH2 0x6A4 JUMP JUMPDEST JUMPDEST SWAP1 PUSH1 0x0 MSTORE PUSH1 0x20 PUSH1 0x0 KECCAK256 SWAP1 PUSH1 0x2 MUL ADD PUSH1 0x1 ADD SLOAD SWAP1 DUP2 ISZERO MUL SWAP1 PUSH1 0x40 MLOAD PUSH1 0x0 PUSH1 0x40 MLOAD DUP1 DUP4 SUB DUP2 DUP6 DUP9 DUP9 CALL SWAP4 POP POP POP POP ISZERO DUP1 ISZERO PUSH2 0x482 JUMPI RETURNDATASIZE PUSH1 0x0 DUP1 RETURNDATACOPY RETURNDATASIZE PUSH1 0x0 REVERT JUMPDEST POP DUP1 DUP1 PUSH2 0x48E SWAP1 PUSH2 0x736 JUMP JUMPDEST SWAP2 POP POP PUSH2 0x3C5 JUMP JUMPDEST POP JUMP JUMPDEST PUSH1 0x0 DUP1 REVERT JUMPDEST PUSH1 0x0 DUP2 SWAP1 POP SWAP2 SWAP1 POP JUMP JUMPDEST PUSH2 0x4B1 DUP2 PUSH2 0x49E JUMP JUMPDEST DUP2 EQ PUSH2 0x4BC JUMPI PUSH1 0x0 DUP1 REVERT JUMPDEST POP JUMP JUMPDEST PUSH1 0x0 DUP2 CALLDATALOAD SWAP1 POP PUSH2 0x4CE DUP2 PUSH2 0x4A8 JUMP JUMPDEST SWAP3 SWAP2 POP POP JUMP JUMPDEST PUSH1 0x0 PUSH1 0x20 DUP3 DUP5 SUB SLT ISZERO PUSH2 0x4EA JUMPI PUSH2 0x4E9 PUSH2 0x499 JUMP JUMPDEST JUMPDEST PUSH1 0x0 PUSH2 0x4F8 DUP5 DUP3 DUP6 ADD PUSH2 0x4BF JUMP JUMPDEST SWAP2 POP POP SWAP3 SWAP2 POP POP JUMP JUMPDEST PUSH1 0x0 PUSH20 0xFFFFFFFFFFFFFFFFFFFFFFFFFFFFFFFFFFFFFFFF DUP3 AND SWAP1 POP SWAP2 SWAP1 POP JUMP JUMPDEST PUSH1 0x0 PUSH2 0x52C DUP3 PUSH2 0x501 JUMP JUMPDEST SWAP1 POP SWAP2 SWAP1 POP JUMP JUMPDEST PUSH2 0x53C DUP2 PUSH2 0x521 JUMP JUMPDEST DUP3 MSTORE POP POP JUMP JUMPDEST PUSH2 0x54B DUP2 PUSH2 0x49E JUMP JUMPDEST DUP3 MSTORE POP POP JUMP JUMPDEST PUSH1 0x0 PUSH1 0x40 DUP3 ADD SWAP1 POP PUSH2 0x566 PUSH1 0x0 DUP4 ADD DUP6 PUSH2 0x533 JUMP JUMPDEST PUSH2 0x573 PUSH1 0x20 DUP4 ADD DUP5 PUSH2 0x542 JUMP JUMPDEST SWAP4 SWAP3 POP POP POP JUMP JUMPDEST PUSH1 0x0 PUSH1 0x20 DUP3 ADD SWAP1 POP PUSH2 0x58F PUSH1 0x0 DUP4 ADD DUP5 PUSH2 0x542 JUMP JUMPDEST SWAP3 SWAP2 POP POP JUMP JUMPDEST PUSH2 0x59E DUP2 PUSH2 0x521 JUMP JUMPDEST DUP2 EQ PUSH2 0x5A9 JUMPI PUSH1 0x0 DUP1 REVERT JUMPDEST POP JUMP JUMPDEST PUSH1 0x0 DUP2 CALLDATALOAD SWAP1 POP PUSH2 0x5BB DUP2 PUSH2 0x595 JUMP JUMPDEST SWAP3 SWAP2 POP POP JUMP JUMPDEST PUSH1 0x0 DUP1 PUSH1 0x40 DUP4 DUP6 SUB SLT ISZERO PUSH2 0x5D8 JUMPI PUSH2 0x5D7 PUSH2 0x499 JUMP JUMPDEST JUMPDEST PUSH1 0x0 PUSH2 0x5E6 DUP6 DUP3 DUP7 ADD PUSH2 0x5AC JUMP JUMPDEST SWAP3 POP POP PUSH1 0x20 PUSH2 0x5F7 DUP6 DUP3 DUP7 ADD PUSH2 0x4BF JUMP JUMPDEST SWAP2 POP POP SWAP3 POP SWAP3 SWAP1 POP JUMP JUMPDEST PUSH1 0x0 DUP3 DUP3 MSTORE PUSH1 0x20 DUP3 ADD SWAP1 POP SWAP3 SWAP2 POP POP JUMP JUMPDEST PUSH32 0x596F7520617265206E6F7420746865206F776E6572206F662074686520636F6E PUSH1 0x0 DUP3 ADD MSTORE PUSH32 0x7472616374000000000000000000000000000000000000000000000000000000 PUSH1 0x20 DUP3 ADD MSTORE POP JUMP JUMPDEST PUSH1 0x0 PUSH2 0x66E PUSH1 0x25 DUP4 PUSH2 0x601 JUMP JUMPDEST SWAP2 POP PUSH2 0x679 DUP3 PUSH2 0x612 JUMP JUMPDEST PUSH1 0x40 DUP3 ADD SWAP1 POP SWAP2 SWAP1 POP JUMP JUMPDEST PUSH1 0x0 PUSH1 0x20 DUP3 ADD SWAP1 POP DUP2 DUP2 SUB PUSH1 0x0 DUP4 ADD MSTORE PUSH2 0x69D DUP2 PUSH2 0x661 JUMP JUMPDEST SWAP1 POP SWAP2 SWAP1 POP JUMP JUMPDEST PUSH32 0x4E487B7100000000000000000000000000000000000000000000000000000000 PUSH1 0x0 MSTORE PUSH1 0x32 PUSH1 0x4 MSTORE PUSH1 0x24 PUSH1 0x0 REVERT JUMPDEST PUSH32 0x4E487B7100000000000000000000000000000000000000000000000000000000 PUSH1 0x0 MSTORE PUSH1 0x11 PUSH1 0x4 MSTORE PUSH1 0x24 PUSH1 0x0 REVERT JUMPDEST PUSH1 0x0 PUSH2 0x70D DUP3 PUSH2 0x49E JUMP JUMPDEST SWAP2 POP PUSH2 0x718 DUP4 PUSH2 0x49E JUMP JUMPDEST SWAP3 POP DUP3 DUP3 ADD SWAP1 POP DUP1 DUP3 GT ISZERO PUSH2 0x730 JUMPI PUSH2 0x72F PUSH2 0x6D3 JUMP JUMPDEST JUMPDEST SWAP3 SWAP2 POP POP JUMP JUMPDEST PUSH1 0x0 PUSH2 0x741 DUP3 PUSH2 0x49E JUMP JUMPDEST SWAP2 POP PUSH32 0xFFFFFFFFFFFFFFFFFFFFFFFFFFFFFFFFFFFFFFFFFFFFFFFFFFFFFFFFFFFFFFFF DUP3 SUB PUSH2 0x773 JUMPI PUSH2 0x772 PUSH2 0x6D3 JUMP JUMPDEST JUMPDEST PUSH1 0x1 DUP3 ADD SWAP1 POP SWAP2 SWAP1 POP JUMP JUMPDEST PUSH1 0x0 PUSH2 0x789 DUP3 PUSH2 0x49E JUMP JUMPDEST SWAP2 POP PUSH2 0x794 DUP4 PUSH2 0x49E JUMP JUMPDEST SWAP3 POP DUP3 DUP3 SUB SWAP1 POP DUP2 DUP2 GT ISZERO PUSH2 0x7AC JUMPI PUSH2 0x7AB PUSH2 0x6D3 JUMP JUMPDEST JUMPDEST SWAP3 SWAP2 POP POP JUMP JUMPDEST PUSH1 0x0 PUSH2 0x7BD DUP3 PUSH2 0x49E JUMP JUMPDEST SWAP2 POP PUSH2 0x7C8 DUP4 PUSH2 0x49E JUMP JUMPDEST SWAP3 POP DUP3 DUP3 MUL PUSH2 0x7D6 DUP2 PUSH2 0x49E JUMP JUMPDEST SWAP2 POP DUP3 DUP3 DIV DUP5 EQ DUP4 ISZERO OR PUSH2 0x7ED JUMPI PUSH2 0x7EC PUSH2 0x6D3 JUMP JUMPDEST JUMPDEST POP SWAP3 SWAP2 POP POP JUMP JUMPDEST PUSH32 0x436F6E7472616374206F776E6572206D75737420626520646563656173656420 PUSH1 0x0 DUP3 ADD MSTORE PUSH32 0x666F722066756E647320746F2062652064697374726975627574656400000000 PUSH1 0x20 DUP3 ADD MSTORE POP JUMP JUMPDEST PUSH1 0x0 PUSH2 0x850 PUSH1 0x3C DUP4 PUSH2 0x601 JUMP JUMPDEST SWAP2 POP PUSH2 0x85B DUP3 PUSH2 0x7F4 JUMP JUMPDEST PUSH1 0x40 DUP3 ADD SWAP1 POP SWAP2 SWAP1 POP JUMP JUMPDEST PUSH1 0x0 PUSH1 0x20 DUP3 ADD SWAP1 POP DUP2 DUP2 SUB PUSH1 0x0 DUP4 ADD MSTORE PUSH2 0x87F DUP2 PUSH2 0x843 JUMP JUMPDEST SWAP1 POP SWAP2 SWAP1 POP JUMP INVALID LOG2 PUSH5 0x6970667358 0x22 SLT KECCAK256 LOG1 PUSH7 0x6E15BE0C4C2F2A 0xEA EQ 0x4D 0xB9 NOT 0xC6 SAR 0x4D 0xCF 0xB4 MSTORE8 0x2A 0x28 ADDRESS SWAP3 0xFB DUP5 PUSH13 0x5572D4511964736F6C63430008 SGT STOP CALLER "
				},
				"gasEstimates": {
					"creation": {
						"codeDepositCost": "447200",
						"executionCost": "117527",
						"totalCost": "564727"
					},
					"external": {
						"Person(uint256)": "infinite",
						"balance()": "2451",
						"benificerdetails(address,uint256)": "infinite",
						"deceased()": "infinite",
						"etherToWei(uint256)": "infinite"
					},
					"internal": {
						"distriubuted()": "infinite"
					}
				},
				"methodIdentifiers": {
					"Person(uint256)": "71b309c4",
					"balance()": "b69ef8a8",
					"benificerdetails(address,uint256)": "c2e0287c",
					"deceased()": "72faf2d9",
					"etherToWei(uint256)": "d8916bb9"
				}
			},
			"storageLayout": {
				"storage": [
					{
						"astId": 26,
						"contract": "contracts/lastwill.sol:change",
						"label": "balance",
						"offset": 0,
						"slot": "0",
						"type": "t_uint256"
					},
					{
						"astId": 28,
						"contract": "contracts/lastwill.sol:change",
						"label": "owner",
						"offset": 0,
						"slot": "1",
						"type": "t_address"
					},
					{
						"astId": 30,
						"contract": "contracts/lastwill.sol:change",
						"label": "funds",
						"offset": 0,
						"slot": "2",
						"type": "t_uint256"
					},
					{
						"astId": 32,
						"contract": "contracts/lastwill.sol:change",
						"label": "isDeceased",
						"offset": 0,
						"slot": "3",
						"type": "t_bool"
					},
					{
						"astId": 35,
						"contract": "contracts/lastwill.sol:change",
						"label": "checkBalanceFlag",
						"offset": 1,
						"slot": "3",
						"type": "t_bool"
					},
					{
						"astId": 44,
						"contract": "contracts/lastwill.sol:change",
						"label": "Person",
						"offset": 0,
						"slot": "4",
						"type": "t_array(t_struct(Beneficiary)40_storage)dyn_storage"
					}
				],
				"types": {
					"t_address": {
						"encoding": "inplace",
						"label": "address",
						"numberOfBytes": "20"
					},
					"t_address_payable": {
						"encoding": "inplace",
						"label": "address payable",
						"numberOfBytes": "20"
					},
					"t_array(t_struct(Beneficiary)40_storage)dyn_storage": {
						"base": "t_struct(Beneficiary)40_storage",
						"encoding": "dynamic_array",
						"label": "struct change.Beneficiary[]",
						"numberOfBytes": "32"
					},
					"t_bool": {
						"encoding": "inplace",
						"label": "bool",
						"numberOfBytes": "1"
					},
					"t_struct(Beneficiary)40_storage": {
						"encoding": "inplace",
						"label": "struct change.Beneficiary",
						"members": [
							{
								"astId": 37,
								"contract": "contracts/lastwill.sol:change",
								"label": "beneficiaryAccounts",
								"offset": 0,
								"slot": "0",
								"type": "t_address_payable"
							},
							{
								"astId": 39,
								"contract": "contracts/lastwill.sol:change",
								"label": "beneficiaryamount",
								"offset": 0,
								"slot": "1",
								"type": "t_uint256"
							}
						],
						"numberOfBytes": "64"
					},
					"t_uint256": {
						"encoding": "inplace",
						"label": "uint256",
						"numberOfBytes": "32"
					}
				}
			},
			"userdoc": {
				"kind": "user",
				"methods": {},
				"version": 1
			}
		}
	}
}